:060000000A128A110C280F
:10000800FE00030EF1000A08F2000A128A15D22F28
:100018000A128A110F28F90183120313E401E5017A
:10002800E601E701E801E901EA01EB01EC018301DE
:100038000A128A11762E831203132D088039B7000D
:100048002D08B2003207BD00AC1F2B282C282D2804
:100058003D143D0803193128322841283D0A031D63
:10006800362837283F280030AD000030AC0000307B
:10007800AB000030AA00AC1749280030AD000030B2
:10008800AC000030AB000030AA0031088039B20063
:100098003208B7063108B2003207BC00B01F552835
:1000A800562857283C143C0803195B285C286B2801
:1000B8003C0A031D6028612869280030B10000301F
:1000C800B0000030AF000030AE00B0177328003029
:1000D800B1000030B0000030AF000030AE003C0886
:1000E8000319772878287D283D08031D7C287D285A
:1000F80086280030AD000030AC000030AB00003086
:10010800AA00632B2A08F30030080A128A157F27F1
:100118000A128A11740883120313C3007308C200F9
:100128004208B200B301B401B5013508BB00340878
:10013800BA003308B9003208B8004308B200B30166
:10014800B401B5013508C1003408C0003308BF0048
:100158003208BE002B08F3002F080A128A157F27E1
:100168000A128A11740883120313C3007308C200A9
:100178004208B200B301B401B5013208B807330828
:1001880003110318013E0319CA28B90734080311DB
:100198000318013E0319D128BA07350803110318BB
:1001A800013E0319D828BB074308B200B301B401C4
:1001B800B5013208BE07330803110318013E0319BD
:1001C800E628BF07340803110318013E0319ED2878
:1001D800C007350803110318013E0319F428C107A5
:1001E8002C08F3002E080A128A157F270A128A1192
:1001F800740883120313C3007308C2004208B200D4
:10020800B301B401B5013208B80733080311031864
:10021800013E03191029B907340803110318013ED8
:1002280003191729BA07350803110318013E0319E2
:100238001E29BB074308B200B301B401B501320857
:10024800BE07330803110318013E03192C29BF0701
:10025800340803110318013E03193329C007350870
:1002680003110318013E03193A29C1070830B200E7
:100278000310B80DB90DBA0DBB0DB20B3C292B08F4
:10028800F3002E080A128A157F270A128A117408A9
:1002980083120313C3007308C2004208B200430864
:1002A800B300B401B5013208B807330803110318C5
:1002B800013E03196029B907340803110318013EE8
:1002C80003196729BA07350803110318013E0319F2
:1002D8006E29BB072A08F3002F080A128A157F2700
:1002E8000A128A11740883120313C3007308C20028
:1002F8004208B2004308B300B401B5013208B80798
:10030800330803110318013E03198B29B907340870
:1003180003110318013E03199229BA07350803117E
:100328000318013E03199929BB070830B2000310CE
:10033800B80DB90DBA0DBB0DB20B9B292A08F300F5
:100348002E080A128A157F270A128A117408831246
:100358000313C3007308C2004208B2004308B30085
:10036800B401B5013208B807330803110318013E78
:100378000319BF29B907340803110318013E0319EB
:10038800C629BA07350803110318013E0319CD29F8
:10039800BB072B08F30030080A128A157F270A12B8
:1003A8008A11740883120313C3007308C200420839
:1003B800B2004308B300B401B5013208BE073308E0
:1003C80003110318013E0319EA29BF073408031172
:1003D8000318013E0319F129C00735080311031852
:1003E800013E0319F829C1072C08F3002F080A1247
:1003F8008A157F270A128A11740883120313C3000F
:100408007308C2004208B2004308B300B401B50142
:100418003208BE07330803110318013E0319152AD1
:10042800BF07340803110318013E03191C2AC0072B
:10043800350803110318013E0319232AC1072C08A4
:10044800F30030080A128A157F270A128A117408E5
:1004580083120313C3007308C2004208B2004308A2
:10046800B300B401B50108300310B20DB30DB40DDB
:10047800B50DFF3E031D382A3208BE0733080311A5
:100488000318013E0319492ABF073408031103184A
:10049800013E0319502AC007350803110318013E0D
:1004A8000319572AC1073808B2003908B3003A08B7
:1004B800B4003B08B50018300310B50CB40CB30CED
:1004C800B20CFF3E031D602A3208BE073308031131
:1004D8000318013E0319712ABF07340803110318D2
:1004E800013E0319782AC007350803110318013E95
:1004F80003197F2AC1070830B2000310B80DB90DDF
:10050800BA0DBB0DB20B812A3D083C07B200B301FE
:10051800B30D3208823EC20033080318013EFF3E85
:10052800C300B32A0130B2000310BE0DBF0DC00DC9
:10053800C10DB20B982ABB1FA22AA32AA42A3E14D3
:100548000130B2000310B80DB90DBA0DBB0DB20BD6
:10055800A62AFF30C2070318C30AFF30C307C01F0B
:10056800B62AB72A962ABC01BB1FBB2ABC2AD82A9E
:10057800FF303805B200FF303905B300FF303A05C7
:10058800B4007F303B05B500350834043304320429
:100598000319CF2AD02AD32ABC01BC0AD82A3E1C68
:1005A800D62AD72AD82AD02A3C080319DC2ADD2AD9
:1005B8000E2B0130BE07003003180130BF07003092
:1005C80003180130C007003003180130C107411C6F
:1005D800EE2AEF2A0E2B3E08B2003F08B30040086F
:1005E800B4004108B5000130B600350DB50CB40CA7
:1005F800B30CB20CB60BF92A3508C1003408C00098
:100608003308BF003208BE000130C2070318C30A0E
:100618000030C3074308803AFF0080307F02031D83
:10062800172BFF304202031C1A2B1B2B262B7F3063
:1006380083120313C1008030C0000030BF000030B7
:10064800BE00572B831203134308803AFF00803003
:100658007F02031D312B013042020318342B352B46
:10066800412B003083120313C1000030C00000305A
:10067800BF000030BE00B701572B83120313420896
:10068800BD00FF30BE05FF30BF057F30C00500301C
:10069800C1053D1C502B512B522BC0173D08B200F1
:1006A8000310320CC1003708B2003208C1044108F7
:1006B800AD004008AC003F08AB003E08AA000800A7
:1006C8008312031347088039D4004708CC004C072D
:1006D800D600C61F702B712B722B5614560803199F
:1006E800762B772B872B560A031D7B2B7C2B842B91
:1006F8000030C7000030C6000030C5000030C4001C
:10070800C617C7018F2B0030C7000030C600003065
:10071800C5000030C4004B088039D5005508540680
:100728000319972B982B992B54174B08CC004C077F
:10073800D500CA1FA02BA12BA22B551455080319AD
:10074800A62BA72BB72B550A031DAB2BAC2BB42B11
:100758000030CB000030CA000030C9000030C800AB
:10076800CA17CB01BF2B0030CB000030CA000030C5
:10077800C9000030C800560855020318C42BC52B01
:10078800EB2B541FC82BC92BCD2B8030CC004C0829
:10079800D4065608D7005508D6005708D50044088F
:1007A800D7004808C4005708C8004508D7004908BA
:1007B800C5005708C9004608D7004A08C6005708A8
:1007C800CA004708D7004B08C7005708CB00D70115
:1007D8005508CC00CD014D08CF0056084C02CE007C
:1007E800031CCF034F08803AFF0080307F02031DAF
:1007F800FF2B1A304E02031C022C032C3A2C8312B6
:1008080003134708460445044404031D0C2C0E2C0E
:1008180001300F2C0030D7000030C7000030C60070
:100828000030C5000030C4005508D600422C571CC3
:100838001E2C1F2C262C5708CC0003104C0C0138FA
:10084800D700282C0310D70C441C2B2C2C2C2D2C17
:10085800D7170130CC00470DC70CC60CC50CC40C0B
:10086800CC0B2F2C0130CC004C08D6078312031375
:1008780055085602031C412C422C1B2C541B452C9A
:10088800462C8F2C5608031D4A2C4B2C542C003018
:10089800C7000030C6000030C5000030C400BB2DC2
:1008A8004808C407490803110318013E03195D2CC1
:1008B800C5074A0803110318013E0319642CC6072B
:1008C8004B0803110318013E03196B2CC707471C7B
:1008D8006E2C6F2C432D571C722C732C7A2C5708B6
:1008E800CC0003104C0C0138D7007C2C0310D70C1B
:1008F800441C7F2C802C812CD7170130CC00470D4D
:10090800C70CC60CC50CC40CCC0B832C0130CC0016
:100918004C08D607432D4708803AFF004B08803A19
:100928007F02031DA12C4A084602031DA12C490879
:100938004502031DA12C480844020318A42CA52C29
:10094800FD2CFF30CC00FF30CD00FF30CE00FF3053
:10095800CF004808D0004908D1004A08D2004B0807
:10096800D3004408D0024508031C450FBC2CBD2CFD
:10097800D1024608031C460FC22CC32CD2024708DA
:10098800031C470FC82CC92CD3025008CC075108A8
:100998000318510FD02CD12CCD0752080318520F31
:1009A800D62CD72CCE0753080318530ACF074F0865
:1009B800C7004E08C6004D08C5004C08C40080306A
:1009C800CC004C08D406D709D70A5708031DED2CCC
:1009D800EE2C0B2D0130C407003003180130C50779
:1009E800003003180130C607003003180130C7076C
:1009F8000B2D4808C4024908031C490FC5024A08C0
:100A0800031C4A0FC6024B08031C4B0FC7024708BA
:100A1800460445044404031D122D132D3F2D570889
:100A2800031D172D182D3F2D0030C7000030C600BC
:100A38000030C5000030C400BB2D0130CC000310CD
:100A4800C40DC50DC60DC70DCC0B232DD71F2D2DDD
:100A58002E2D2F2D4414571C322D332D362D0314D3
:100A6800D70D382D0310D70D560803193C2D3D2DF1
:100A78003F2D0130D602C61F422D432D212DD50111
:100A8800D71F472D482D562D57087F3903194D2D4F
:100A98004E2D512DD501D50A562D441C542D552DBA
:100AA800562D4E2D550803195A2D5B2D8F2D0130CB
:100AB800C407003003180130C5070030031801309F
:100AC800C607003003180130C707471C6C2D6D2D71
:100AD8008F2D4408CC004508CD004608CE004708B5
:100AE800CF000130D0004F0DCF0CCE0CCD0CCC0C6C
:100AF800D00B772D4F08C7004E08C6004D08C5001B
:100B08004C08C400560A03198A2D8B2D8F2D0130ED
:100B1800CC004C08D607560A0319932D942D992D0D
:100B28005608031D982D992DA72D0030C7000030B9
:100B3800C6000030C5000030C4005608031DA52DAE
:100B4800A62DA72DD401561CAA2DAB2DAD2DC61749
:100B5800B12D7F30CC004C08C6055608CC000310D8
:100B68004C0CC700D41FB92DBA2DBB2DC7170800D0
:100B780083120313A40024080319C32DC42DD82DF0
:100B8800F61FC72DC82DD82D7309A6007409A70014
:100B98007509A8007609A900A60A0319A70A031966
:100BA800A80A0319A90AE02D7608A9007508A80063
:100BB8007408A7007308A600760875047404730403
:100BC800031DE72DE82DF12D0030F6000030F5006B
:100BD8000030F4000030F300752E9630A500012E89
:100BE8000130A0002008A50701300310A90CA80CAB
:100BF800A70CA60CFF3E031DF92DFE302905031D89
:100C0800062E072EF42D232E0130A0002008A5075C
:100C18000130A607003003180130A7070030031879
:100C28000130A807003003180130A907013003106C
:100C3800A90CA80CA70CA60CFF3E031D1B2EFF3009
:100C48002905031D282E292E082E352E0130A50230
:100C58000130A0000310A60DA70DA80DA90DA00B2B
:100C68002E2EA81B382E392E3F2E023025020318AF
:100C78003E2E3F2E2A2E2518422E432E4B2EFF3075
:100C8800A605FF30A7057F30A805FF30A90503108A
:100C9800A50C2508A000A101A201A301183003108A
:100CA800A00DA10DA20DA30DFF3E031D532E20087C
:100CB800A6042108A7042208A8042308A9042408D4
:100CC8000319672E682E6D2EF61F6B2E6C2E6D2E57
:100CD800A9172908F6002808F5002708F4002608AF
:100CE800F30008000A128A11D3270A128A110A127D
:100CF8008A15A8270A128A110A128A155A270A126F
:100D08008A1183120313EC01831203131F08C339DA
:100D180004389F00033083120313E200E20B922E83
:100D2800831203139F149F189A2E9B2E972E1E082A
:100D3800E200E3016208E8006308E9006908E100ED
:100D48006808E0000A128A117E270A128A118312A3
:100D580003136A089500033083120313E200E20BC1
:100D6800B32E831203131F08C33908389F000330BA
:100D780083120313E200E20BBF2E831203139F14A6
:100D88009F18C72EC82EC42E1E08E200E301620871
:100D9800E6006308E7006708E1006608E0000A1259
:100DA8008A117E270A128A11831203136A089B008C
:100DB800033083120313E200E20BE02E83120313C5
:100DC8001F08C3390C389F00033083120313E20055
:100DD800E20BEC2E831203139F149F18F42EF52EAA
:100DE800F12E1E08E200E3016208E4006308E50052
:100DF800033083120313E200E20B002F882E0A123D
:100E08008A110C280310831203135A0D5B0DF80086
:100E18007808031D102F112F1A2F0030DB00003027
:100E2800DA000030D9000030D8007D2F5808DC00E7
:100E38005908DD005A08DE005B08DF001F30031088
:100E4800DF0CDE0CDD0CDC0CFF3E031D232F5C08E1
:100E5800F700DA17FF30D805FF30D905FF30DA057B
:100E68000030DB059630F802F81F3B2F3C2F562F39
:100E78007808803A973E0318422F432F442F112FAA
:100E880001300310DB0CDA0CD90CD80CFF3E031D23
:100E9800452F0130DC005C08F807031D542F552F3F
:100EA800442F6D2F20307802031C5B2F5C2F682F96
:100EB800112F0130DC000310D80DD90DDA0DDB0D30
:100EC800DC0B5F2F0130F8027808031D6C2F6D2FA3
:100ED8005D2F77080319712F722F7D2FD809D90933
:100EE800DA09DB09D80A0319D90A0319DA0A031936
:100EF800DB0A0800831203136008F3006108F4009A
:100F08000030F41BFF30F500F60001300A128A1198
:100F1800BC250A128A11760883120313B1007508DA
:100F2800B0007408AF007308AE003D30AD008030EB
:100F3800AC008030AB008130AA000A128A111F2051
:100F48000A128A11831203132D08CB002C08CA0039
:100F58002B08C9002A08C8004030C700E030C60086
:100F68000030C5000030C4000A128A1164230A1236
:100F78008A11831203134708DB004608DA00450884
:100F8800D9004408D8000A128A1106270A128A11C1
:100F9800831203135908EB005808EA000800831667
:100FA80003178901831603138513860187018801B6
:100FB800890183120313851386018701880189013A
:100FC800831603130F088F3930388F000F148B17CF
:100FD8000C178B16831203130C130B1183160313B0
:100FE800811281110108F83903388100F030831229
:060FF80003138100080054
:101EB4008316031307158714FF3092003F308312F3
:101EC400031397051708F0390C3897000F309D0459
:101ED400303097040B3095009D161D160B309B0077
:101EE4008C100330920412158C1C792F7A2F762FC4
:101EF4008316031307118710080083120313A40029
:101F0400A001A1017308F500F6017508A200760886
:101F1400A300241C8E2F8F2F952F2208A0070318AF
:101F2400A10A2308A10701300310A20DA30DFF3E4F
:101F3400031D962F0310A40C2408031DA22FA32F06
:101F44008B2F2108F4002008F300080083160313E4
:101F54008514831603178814831603130515831633
:101F6400031708158316031385158316031788159D
:101F7400831203131F083F3940389F00831603134D
:101F84009F121F129F13831203131F08C3390438AF
:101F94009F001F140330F300F30BCE2FD12F080042
:101FA400831203130C1FD72FD82FDA2F86170C1385
:101FB4000B1DDD2FDE2FF92F0130F0007008EC0728
:101FC4006508803AF00080307002031DEB2F6C0826
:101FD4006402031CEE2FEF2FF32F831203138517D4
:101FE400F62F831203138513F03081000B1172084E
:0C1FF4008A00710E8300FE0E7E0E0900B4
:08400000FF3FFF3FFF3FFF3FC0
:04400E00D420FF3F7C
:00000001FF
